{
  "contractName": "DappToken",
  "abi": [
    {
      "inputs": [],
      "stateMutability": "nonpayable",
      "type": "constructor"
    },
    {
      "inputs": [],
      "name": "_totalSupply",
      "outputs": [
        {
          "internalType": "uint256",
          "name": "",
          "type": "uint256"
        }
      ],
      "stateMutability": "view",
      "type": "function",
      "constant": true
    },
    {
      "inputs": [],
      "name": "totalSupply",
      "outputs": [
        {
          "internalType": "uint256",
          "name": "",
          "type": "uint256"
        }
      ],
      "stateMutability": "view",
      "type": "function",
      "constant": true
    }
  ],
  "bytecode": "0x608060405234801561001057600080fd5b506298968060008190555060e0806100296000396000f3fe6080604052348015600f57600080fd5b506004361060325760003560e01c806318160ddd1460375780633eaaf86b146051575b600080fd5b603d606b565b604051604891906087565b60405180910390f35b60576074565b604051606291906087565b60405180910390f35b60008054905090565b60005481565b60818160a0565b82525050565b6000602082019050609a6000830184607a565b92915050565b600081905091905056fea264697066735822122079b96b37e392240202a620ec7462c610813200158042ad457b68844be022278264736f6c63430008050033",
  "immutableReferences": {},
  "source": "// SPDX-License-Identifier: MIT\npragma solidity >=0.4.22 <0.9.0;\n\ncontract DappToken {\n\n  uint256 public _totalSupply;\n\n  constructor() {\n    _totalSupply = 10000000;\n  }\n\n  function totalSupply() public view returns(uint256) {\n    return _totalSupply;\n  }\n}",
  "sourcePath": "/home/develop/Work/token_sale/contracts/DappToken.sol",
  "compiler": {
    "name": "solc",
    "version": "0.8.5+commit.a4f2e591.Emscripten.clang"
  },
  "schemaVersion": "3.4.1",
  "updatedAt": "2021-06-20T03:02:49.507Z",
  "networkType": "ethereum",
  "devdoc": {
    "kind": "dev",
    "methods": {},
    "version": 1
  },
  "userdoc": {
    "kind": "user",
    "methods": {},
    "version": 1
  }
}