{
  "contractName": "DappToken",
  "abi": [
    {
      "inputs": [
        {
          "internalType": "uint256",
          "name": "_initialSupply",
          "type": "uint256"
        }
      ],
      "stateMutability": "nonpayable",
      "type": "constructor"
    },
    {
      "inputs": [],
      "name": "_totalSupply",
      "outputs": [
        {
          "internalType": "uint256",
          "name": "",
          "type": "uint256"
        }
      ],
      "stateMutability": "view",
      "type": "function",
      "constant": true
    },
    {
      "inputs": [
        {
          "internalType": "address",
          "name": "",
          "type": "address"
        }
      ],
      "name": "balanceOf",
      "outputs": [
        {
          "internalType": "uint256",
          "name": "",
          "type": "uint256"
        }
      ],
      "stateMutability": "view",
      "type": "function",
      "constant": true
    },
    {
      "inputs": [],
      "name": "totalSupply",
      "outputs": [
        {
          "internalType": "uint256",
          "name": "",
          "type": "uint256"
        }
      ],
      "stateMutability": "view",
      "type": "function",
      "constant": true
    }
  ],
  "bytecode": "0x608060405234801561001057600080fd5b506040516102cd3803806102cd83398181016040528101906100329190610098565b80600160003373ffffffffffffffffffffffffffffffffffffffff1673ffffffffffffffffffffffffffffffffffffffff1681526020019081526020016000208190555080600081905550506100eb565b600081519050610092816100d4565b92915050565b6000602082840312156100ae576100ad6100cf565b5b60006100bc84828501610083565b91505092915050565b6000819050919050565b600080fd5b6100dd816100c5565b81146100e857600080fd5b50565b6101d3806100fa6000396000f3fe608060405234801561001057600080fd5b50600436106100415760003560e01c806318160ddd146100465780633eaaf86b1461006457806370a0823114610082575b600080fd5b61004e6100b2565b60405161005b919061012a565b60405180910390f35b61006c6100bb565b604051610079919061012a565b60405180910390f35b61009c600480360381019061009791906100ee565b6100c1565b6040516100a9919061012a565b60405180910390f35b60008054905090565b60005481565b60016020528060005260406000206000915090505481565b6000813590506100e881610186565b92915050565b60006020828403121561010457610103610181565b5b6000610112848285016100d9565b91505092915050565b61012481610177565b82525050565b600060208201905061013f600083018461011b565b92915050565b600061015082610157565b9050919050565b600073ffffffffffffffffffffffffffffffffffffffff82169050919050565b6000819050919050565b600080fd5b61018f81610145565b811461019a57600080fd5b5056fea2646970667358221220a16a2bb661f96a8ddfa6a5f830afd2fe39e69f03968a34d251e5625a72e853d964736f6c63430008050033",
  "immutableReferences": {},
  "source": "// SPDX-License-Identifier: MIT\npragma solidity >=0.4.22 <0.9.0;\n\ncontract DappToken {\n\n  uint256 public _totalSupply;\n\n  mapping(address => uint256) public balanceOf;\n\n  constructor(uint256 _initialSupply) {\n    balanceOf[msg.sender] = _initialSupply;\n    _totalSupply = _initialSupply;\n  }\n\n  function totalSupply() public view returns(uint256) {\n    return _totalSupply;\n  }\n}",
  "sourcePath": "/home/develop/Work/Truffle Samples/token_sale/contracts/DappToken.sol",
  "compiler": {
    "name": "solc",
    "version": "0.8.5+commit.a4f2e591.Emscripten.clang"
  },
  "schemaVersion": "3.4.1",
  "updatedAt": "2021-06-21T19:55:19.895Z",
  "networkType": "ethereum",
  "devdoc": {
    "kind": "dev",
    "methods": {},
    "version": 1
  },
  "userdoc": {
    "kind": "user",
    "methods": {},
    "version": 1
  }
}